:020000040800F2
:1000000000000220D90E0008290D00082F0D00085D
:10001000350D00083B0D0008410D000800000000F0
:10002000000000000000000000000000470D000874
:10003000550D000800000000630D0008710D000858
:10004000290F0008290F0008290F0008290F0008B0
:10005000290F0008290F0008290F0008290F0008A0
:10006000290F0008290F0008290F0008290F000890
:10007000290F0008290F00087D0D0008910D0008C8
:10008000290F0008290F0008290F0008290F000870
:10009000290F0008290F0008290F0008290F000860
:1000A000290F0008290F0008290F0008290F000850
:1000B000290F0008290F0008290F0008290F000840
:1000C000290F0008290F0008290F0008290F000830
:1000D000290F0008290F0008290F0008290F000820
:1000E000290F0008290F0008290F0008290F000810
:1000F000290F0008290F0008290F0008290F000800
:10010000290F0008290F0008290F0008290F0008EF
:10011000290F0008290F0008290F0008290F0008DF
:10012000290F0008290F0008290F0008290F0008CF
:10013000290F0008290F0008290F0008290F0008BF
:10014000290F0008290F0008290F0008290F0008AF
:10015000290F0008290F0008290F0008290F00089F
:10016000290F0008290F0008290F0008290F00088F
:10017000290F0008290F0008290F000800000000BF
:08018000290F0008290F0008F7
:1001880010B5054C237833B9044B13B10448AFF3C9
:1001980000800123237010BD8C00002000000000A7
:1001A8008849000808B5034B1BB103490348AFF35E
:1001B800008008BD00000000900000208849000869
:1001C80053B94AB9002908BF00281CBF4FF0FF31B6
:1001D8004FF0FF3000F074B9ADF1080C6DE904CEB2
:1001E80000F006F8DDF804E0DDE9022304B070470A
:1001F8002DE9F047089D04468E46002B4DD18A42D2
:10020800944669D9B2FA82F252B101FA02F3C2F104
:10021800200120FA01F10CFA02FC41EA030E944095
:100228004FEA1C48210CBEFBF8F61FFA8CF708FBB6
:1002380016E341EA034306FB07F199420AD91CEB8E
:10024800030306F1FF3080F01F81994240F21C81C0
:10025800023E63445B1AA4B2B3FBF8F008FB103308
:1002680044EA034400FB07F7A7420AD91CEB04043D
:1002780000F1FF3380F00A81A74240F2078164440D
:10028800023840EA0640E41B00261DB1D440002392
:10029800C5E900433146BDE8F0878B4209D9002DF6
:1002A80000F0EF800026C5E9000130463146BDE880
:1002B800F087B3FA83F6002E4AD18B4202D38242EA
:1002C80000F2F980841A61EB030301209E46002D99
:1002D800E0D0C5E9004EDDE702B9FFDEB2FA82F2EE
:1002E800002A40F09280A1EB0C014FEA1C471FFA4C
:1002F8008CFE0126200CB1FBF7F307FB131140EA33
:1003080001410EFB03F0884208D91CEB010103F1FF
:10031800FF3802D2884200F2CB804346091AA4B2C1
:10032800B1FBF7F007FB101144EA01440EFB00FE95
:10033800A64508D91CEB040400F1FF3102D2A645FA
:1003480000F2BB800846A4EB0E0440EA03409CE799
:10035800C6F12007B34022FA07FC4CEA030C20FA46
:1003680007F401FA06F31C43F9404FEA1C4900FA66
:1003780006F3B1FBF9F8200C1FFA8CFE09FB1811E3
:1003880040EA014108FB0EF0884202FA06F20BD956
:100398001CEB010108F1FF3A80F08880884240F2A6
:1003A8008580A8F102086144091AA4B2B1FBF9F0EA
:1003B80009FB101144EA014100FB0EFE8E4508D9E5
:1003C8001CEB010100F1FF346CD28E456AD902386A
:1003D800614440EA0840A0FB0294A1EB0E01A1424F
:1003E800C846A64656D353D05DB1B3EB080261EBBD
:1003F8000E0101FA07F722FA06F3F1401F43C5E997
:10040800007100263146BDE8F087C2F12003D840CC
:100418000CFA02FC21FA03F3914001434FEA1C470E
:100428001FFA8CFEB3FBF7F007FB10360B0C43EA00
:10043800064300FB0EF69E4204FA02F408D91CEBB0
:10044800030300F1FF382FD29E422DD902386344AE
:100458009B1B89B2B3FBF7F607FB163341EA03414E
:1004680006FB0EF38B4208D91CEB010106F1FF389D
:1004780016D28B4214D9023E6144C91A46EA004694
:1004880038E72E46284605E70646E3E61846F8E626
:100498004B45A9D2B9EB020864EB0C0E0138A3E76F
:1004A8004646EAE7204694E74046D1E7D0467BE750
:1004B800023B614432E7304609E76444023842E7C8
:1004C800704700BF80B584B000AFF860B9607A604B
:1004D8007B689BB21A46B968034803F06FF87B68DB
:1004E80018461037BD4680BDB001002080B500AF6A
:1004F80003F0A4FC00F01AF800F0FAF800F0D8F8BD
:1005080000F07EF800F0AAF80423044A04490548DC
:1005180001F054FB044803F0A3FDFEE7F4010020BA
:1005280014020020A8000020A049000880B594B05B
:1005380000AF07F1200330220021184603F01AFD0E
:1005480007F10C0300221A605A609A60DA601A6197
:100558000023BB60284B1B6C274A43F0805313646D
:10056800254B1B6C03F08053BB60BB6800237B608A
:10057800224B1B68214A43F4804313601F4B1B68BE
:1005880003F480437B607B6801233B624FF4803334
:100598007B620223BB634FF48003FB6304233B6449
:1005A800A8237B640223BB640423FB6407F12003B4
:1005B800184602F01DFB0346002B01D000F03EFA5E
:1005C8000F23FB6002233B6100237B614FF4A053A0
:1005D800BB614FF48053FB6107F10C0305211846FA
:1005E80002F07EFD0346002B01D000F027FA00BF81
:1005F8005037BD4680BD00BF003802400070004043
:1006080080B500AF134B144A1A60124B4FF40072B6
:100618005A60104B00229A600E4B0322DA600D4B91
:100628004FF400721A610B4B4BF680325A61094B3A
:1006380000229A61074B0022DA61064B01221A62F6
:10064800044801F04FFF0346002B01D000F0F6F9F3
:1006580000BF80BDA80000200038004080B500AF72
:10066800114B124A1A60104B4FF4E1325A600E4B8C
:1006780000229A600C4B0022DA600B4B00221A61B0
:10068800094B0C225A61084B00229A61064B002242
:10069800DA61054802F044FF0346002B01D000F060
:1006A800CDF900BF80BD00BFB0010020004C004064
:1006B80080B582B000AF00237B600C4B1B6B0B4AEC
:1006C80043F400131363094B1B6B03F400137B60A3
:1006D8007B68002200210E2000F02DFD0E2000F086
:1006E80046FD00BF0837BD4680BD00BF0038024048
:1006F80080B485B000AF0023FB601E4B1B6B1D4A06
:1007080043F0040313631B4B1B6B03F00403FB60F0
:10071800FB680023BB60174B1B6B164A43F0800332
:100728001363144B1B6B03F08003BB60BB6800238F
:100738007B60104B1B6B0F4A43F0010313630D4B97
:100748001B6B03F001037B607B6800233B60094B54
:100758001B6B084A43F002031363064B1B6B03F041
:1007680002033B603B6800BF1437BD465DF8047B5D
:10077800704700BF0038024080B584B000AF786091
:100788000023FB7307F10F03184600F013F800BFAE
:100798001037BD4680BD80B584B000AF78600123B6
:1007A800FB7307F10F03184600F004F800BF103779
:1007B800BD4680BD80B590B000AF78600023FB6374
:1007C8007B681B78012B02D1FB6B0833FB63614A02
:1007D800FB6B32F813301B04FA6B01325D4931F8B8
:1007E800122013431B12BB63FB6B0233594A32F8C6
:1007F80013301B04FA6B0332564931F812201343A5
:100808001B127B63FB6B0433524A32F813301B0410
:10081800FA6B05324F4931F8122013431B123B6320
:10082800FB6B06334B4A32F813301B04FA6B073262
:10083800484931F8122013431B12FB62BB6B07EEC9
:10084800903AF8EEE77AC7ED0A7A7B6B07EE903AB2
:10085800F8EEE77AC7ED097A3B6B07EE903AF8EEC7
:10086800E77AC7ED087AFB6A07EE903AF8EEE77A7E
:10087800C7ED077AD7ED090A97ED0A0A00F06EF876
:1008880087ED0A0ABB6A7B62D7ED070A97ED080A6B
:1008980000F064F887ED080A3B6AFB61D7ED0A7A35
:1008A800FDEEE77A17EE903ABB61D7ED097AFDEED7
:1008B800E77A17EE903A7B61D7ED087AFDEEE77A92
:1008C80017EE903A3B61D7ED077AFDEEE77A17EE1F
:1008D800903AFB60BB691B1299B21F4AFB6B22F866
:1008E8001310FB6B0133BA6991B21B4A22F813103B
:1008F8007B691A12FB6B023391B2174A22F8131064
:10090800FB6B03337A6991B2134A22F813103B69DF
:100918001A12FB6B043391B20F4A22F81310FB6BC7
:1009280005333A6991B20C4A22F81310FB681A127F
:10093800FB6B063391B2084A22F81310FB6B07339E
:10094800FA6891B2044A22F8131000BF4037BD4636
:1009580080BD00BFF40100201402002080B588B0DB
:1009680000AF87ED010AC7ED000A2F4B9B682E4A9E
:10097800D3602D4B5B682C4A93602B4B1B682A4A2B
:100988005360294A7B681360284B9B68274AD360C9
:10099800264B5B68254A9360244B1B68234A5360A7
:1009A800224B5B683B61214B9B687B611F4BDB687B
:1009B800BB611F4B1B68032B06DC1C4A7B6813605A
:1009C8001A4B1B68FB611AE007F10C030422194952
:1009D800154800F0A6FA07F1080307F110000322F2
:1009E800154900F09EFA97ED037AD7ED027A77EE73
:1009F800677A0E4BC3ED007A0C4B1B68FB610C4BFE
:100A08001B6801330A4A1360094B1B680F2B02DD70
:100A1800074B0F221A60FB6907EE903AB0EE670A9F
:100A28002037BD4680BD00BF3402002044020020AC
:100A380054020020000000201000002080B400AF05
:100A480072B600BFFEE7000080B483B000AF002399
:100A58007B60104B5B6C0F4A43F4804353640D4B2F
:100A68005B6C03F480437B607B6800233B60094B2D
:100A78001B6C084A43F080531364064B1B6C03F04D
:100A880080533B603B6800BF0C37BD465DF8047B74
:100A9800704700BF0038024080B58EB000AF786064
:100AA80007F1240300221A605A609A60DA601A611A
:100AB80007F1140300221A605A609A60DA607B68B2
:100AC8001B686B4A934240F0CF8001237B61C023AF
:100AD800BB610223FB6107F11403184601F048FFCC
:100AE8000346002B01D0FFF7A9FF00233B61614BB0
:100AF8001B6C604A43F4804313645E4B1B6C03F425
:100B080080433B613B690023FB605A4B1B6B594A8E
:100B180043F002031363574B1B6B03F00203FB60A4
:100B2800FB680023BB60534B1B6B524A43F0040322
:100B38001363504B1B6B03F00403BB60BB684FF49B
:100B480030437B620223BB620023FB6200233B63CA
:100B580005237B6307F124031946474800F092FEFA
:100B68004FF480437B620223BB620023FB620023B5
:100B78003B6306237B6307F1240319463E4800F0D4
:100B880081FE40237B620223BB620023FB620023B9
:100B98003B6305237B6307F124031946374800F0BC
:100BA80071FE374B374A1A60354B4FF0C0625A60B6
:100BB800334B00229A60324B0022DA60304B4FF4FC
:100BC80080621A612E4B4FF400625A612C4B4FF42D
:100BD80000529A612A4B4FF48072DA61284B4FF425
:100BE80000321A62264B00225A62254800F0DAFACF
:100BF8000346002B01D0FFF721FF7B68204ADA6308
:100C08001F4A7B689363204B204A1A601E4B0022C0
:100C18005A601D4B40229A601B4B0022DA601A4B27
:100C28004FF480621A61184B4FF400625A61164BF8
:100C38004FF400529A61144B4FF48072DA61124BF0
:100C48004FF400321A62104B00225A620E4800F02C
:100C5800A9FA0346002B01D0FFF7F0FE7B680A4A89
:100C68009A63094A7B68936300BF3837BD4680BDE5
:100C780000380040003802400004024000080240EA
:100C8800F0000020586002405001002070600240CF
:100C980080B58AB000AF786007F1140300221A60AB
:100CA8005A609A60DA601A617B681B68194A934235
:100CB8002BD100233B61184B1B6C174A43F40023CC
:100CC8001364154B1B6C03F400233B613B69002341
:100CD800FB60114B1B6B104A43F0010313630E4B6F
:100CE8001B6B03F00103FB60FB6803237B6102239A
:100CF800BB610023FB6103233B6208237B6207F18E
:100D080014031946054800F0BDFD00BF2837BD464D
:100D180080BD00BF004C0040003802400000024087
:100D280080B400AFFEE780B400AFFEE780B400AF48
:100D3800FEE780B400AFFEE780B400AFFEE780B402
:100D480000AF00BFBD465DF8047B704780B400AFBC
:100D580000BFBD465DF8047B704780B400AF00BF9C
:100D6800BD465DF8047B704780B500AF03F0B8F866
:100D780000BF80BD80B500AF024800F019FB00BF7E
:100D880080BD00BFF000002080B500AF024800F031
:100D98000FFB00BF80BD00BF5001002080B586B0AA
:100DA80000AFF860B9607A6000237B610AE0AFF3B6
:100DB80000800146BB685A1CBA60CAB21A707B69C7
:100DC80001337B617A697B689A42F0DB7B6818465D
:100DD8001837BD4680BD80B483B000AF78604FF04F
:100DE800FF3318460C37BD465DF8047B704780B466
:100DF80083B000AF786039603B684FF400525A60A6
:100E0800002318460C37BD465DF8047B704780B454
:100E180083B000AF7860012318460C37BD465DF8F3
:100E2800047B704780B485B000AFF860B9607A6021
:100E3800002318461437BD465DF8047B7047000050
:100E480080B586B000AF7860144A154BD31A7B6121
:100E58007B693B61134B1B68002B02D1114B124A73
:100E68001A60104B1A687B6813443A699A4207D291
:100E780003F056F803460C221A604FF0FF3309E0DE
:100E8800084B1B68FB60074B1A687B681344054ACC
:100E98001360FB6818461837BD4680BD0000022065
:100EA80000040000580200207002002080B400AF47
:100EB800064BD3F88830054A43F47003C2F88830EB
:100EC80000BFBD465DF8047B704700BF00ED00E041
:100ED800DFF834D00D480E490E4A002302E0D458FA
:100EE800C4500433C4188C42F9D30B4A0B4C00236A
:100EF80001E013600432A242FBD3FFF7D7FF03F0EF
:100F080015F8FFF7F3FA70470000022000000020F0
:100F18008C000020504A00088C000020700200203D
:100F2800FEE780B487B000AFF860B9607A603B60D4
:100F38004FF000033B617B687B6114E0FB681A1D7E
:100F4800FA6093ED007ABB681A1DBA60D3ED007A97
:100F580067EE277A97ED047A77EE277AC7ED047A59
:100F68007B69013B7B617B69002BE7D13B683A6970
:100F78001A6000BF1C37BD465DF8047B704700004F
:100F880080B485B000AF78607B6803F00703FB602E
:100F98000C4BDB68BB60BA684FF6FF031340BB60BD
:100FA800FB681A02BB68134343F0BF6343F4003382
:100FB800BB60044ABB68D36000BF1437BD465DF808
:100FC800047B704700ED00E080B400AF044BDB68A1
:100FD8001B0A03F007031846BD465DF8047B7047FB
:100FE80000ED00E080B483B000AF0346FB7197F9D1
:100FF8000730002B0BDBFB7903F01F02074997F939
:1010080007305B09012000FA02F241F8232000BFF3
:101018000C37BD465DF8047B704700BF00E100E077
:1010280080B483B000AF03463960FB7197F907308D
:10103800002B0ADB3B68DAB20C4997F9073012013A
:10104800D2B20B4483F800230AE03B68DAB20849BD
:10105800FB7903F00F03043B1201D2B20B441A765A
:1010680000BF0C37BD465DF8047B704700E100E027
:1010780000ED00E080B489B000AFF860B9607A6034
:10108800FB6803F00703FB61FB69C3F10703042B4B
:1010980028BF0423BB61FB690433062B02D9FB6913
:1010A800033B00E000237B614FF0FF32BB6902FA8B
:1010B80003F3DA43BB681A407B699A404FF0FF316B
:1010C8007B6901FA03F3D9437B680B401343184645
:1010D8002437BD465DF8047B7047000080B582B0B8
:1010E80000AF78607B68013BB3F1807F01D30123B7
:1010F8000FE00A4A7B68013B53600F214FF0FF3035
:10110800FFF78EFF054B00229A60044B07221A60F6
:10111800002318460837BD4680BD00BF10E000E038
:1011280080B582B000AF78607868FFF729FF00BF0C
:101138000837BD4680BD80B586B000AF0346B960AC
:101148007A60FB7300237B61FFF73EFF78617A6862
:10115800B9687869FFF78EFF024697F90F30114694
:101168001846FFF75DFF00BF1837BD4680BD80B544
:1011780082B000AF0346FB7197F907301846FFF7B6
:1011880031FF00BF0837BD4680BD80B582B000AFD3
:1011980078607868FFF7A2FF034618460837BD460F
:1011A80080BD000080B586B000AF786000237B6109
:1011B80002F0AAFE38617B68002B01D1012399E077
:1011C8007B68022283F835207B68002283F834206C
:1011D8007B681B681A687B681B6822F001021A602A
:1011E8000FE002F091FE02463B69D31A052B08D99D
:1011F8007B6820225A657B68032283F83520032305
:1012080078E07B681B681B6803F00103002BE8D1BA
:101218007B681B681B687B617A69384B13407B616C
:101228007B685A687B689B681A437B68DB681A434B
:101238007B681B691A437B685B691A437B689B69F7
:101248001A437B68DB691A437B681B6A13437A6914
:1012580013437B617B685B6A042B07D17B68DA6A7E
:101268007B681B6B13437A6913437B617B681B683C
:101278007A691A607B681B685B697B617B6923F00C
:1012880007037B617B685B6A7A6913437B617B68D0
:101298005B6A042B17D17B689B6A7A6913437B616D
:1012A8007B68DB6A002B0ED0786800F06FFA034683
:1012B800002B08D07B6840225A657B68012283F89E
:1012C8003520012316E07B681B687A695A617868C3
:1012D80000F026FA0346FB607B68DB6D3F229A40EC
:1012E800FB689A607B6800225A657B68012283F854
:1012F8003520002318461837BD4680BD3F8010F0C2
:1013080080B586B000AFF860B9607A603B600023B2
:10131800FB75FB689B6D3B61FB6893F83430012BD0
:1013280001D1022340E0FB68012283F83420FB68E6
:1013380093F83530DBB2012B2FD1FB68022283F8FA
:101348003520FB6800225A653B687A68B968F868F6
:1013580000F0B8F9FB68DB6D3F229A403B699A6060
:10136800FB681B681A68FB681B6842F016021A6063
:10137800FB681B6C002B07D0FB681B681A68FB68AE
:101388001B6842F008021A60FB681B681A68FB6851
:101398001B6842F001021A6005E0FB68002283F82E
:1013A80034200223FB75FB7D18461837BD4680BDE7
:1013B80080B586B000AF78600023BB608E4B1B6899
:1013C8008E4AA2FB03239B0A7B617B689B6D3B6172
:1013D8003B691B68FB607B68DB6D08229A40FB68F1
:1013E8001340002B1AD07B681B681B6803F00403AA
:1013F800002B13D07B681B681A687B681B6822F077
:1014080004021A607B68DB6D08229A403B699A6087
:101418007B685B6D43F001027B685A657B68DB6D16
:1014280001229A40FB681340002B12D07B681B688E
:101438005B6903F08003002B0BD07B68DB6D012216
:101448009A403B699A607B685B6D43F002027B6857
:101458005A657B68DB6D04229A40FB681340002BB9
:1014680012D07B681B681B6803F00203002B0BD0AB
:101478007B68DB6D04229A403B699A607B685B6DF0
:1014880043F004027B685A657B68DB6D10229A4042
:10149800FB681340002B43D07B681B681B6803F074
:1014A8000803002B3CD07B68DB6D10229A403B6917
:1014B8009A607B681B681B6803F48023002B18D094
:1014C8007B681B681B6803F40023002B08D17B682A
:1014D8001B6C002B24D07B681B6C786898471FE036
:1014E8007B689B6C002B1BD07B689B6C786898474B
:1014F80016E07B681B681B6803F48073002B07D118
:101508007B681B681A687B681B6822F008021A60EF
:101518007B681B6C002B03D07B681B6C7868984732
:101528007B68DB6D20229A40FB681340002B00F09B
:101538008F807B681B681B6803F01003002B00F08A
:1015480087807B68DB6D20229A403B699A607B68C4
:1015580093F83530DBB2052B36D17B681B681A68E7
:101568007B681B6822F016021A607B681B685A6940
:101578007B681B6822F080025A617B681B6C002B19
:1015880003D17B689B6C002B07D07B681B681A68AB
:101598007B681B6822F008021A607B68DB6D3F22BB
:1015A8009A403B699A607B68012283F835207B6802
:1015B800002283F834207B681B6D002B7ED07B686B
:1015C8001B6D7868984779E07B681B681B6803F493
:1015D8008023002B1DD07B681B681B6803F4002345
:1015E800002B0DD17B685B6C002B31D07B685B6C6A
:1015F800786898472CE000BF1C000020B5814E1B7E
:101608007B68DB6B002B23D07B68DB6B78689847A3
:101618001EE07B681B681B6803F48073002B0FD1E6
:101628007B681B681A687B681B6822F010021A60C6
:101638007B68012283F835207B68002283F83420F8
:101648007B68DB6B002B03D07B68DB6B7868984783
:101658007B685B6D002B32D07B685B6D03F0010308
:10166800002B22D07B68052283F835207B681B6815
:101678001A687B681B6822F001021A60BB68013394
:10168800BB607A699A4207D37B681B681B6803F0C2
:101698000103002BF2D100E000BF7B68012283F830
:1016A80035207B68002283F834207B68DB6C002BB4
:1016B80005D07B68DB6C7868984700E000BF183776
:1016C800BD4680BD80B485B000AFF860B9607A606F
:1016D8003B60FB681B681A68FB681B6822F4802261
:1016E8001A60FB681B683A685A60FB689B68402B65
:1016F80008D1FB681B687A689A60FB681B68BA683F
:10170800DA6007E0FB681B68BA689A60FB681B68C8
:101718007A68DA6000BF1437BD465DF8047B70470D
:1017280080B485B000AF78607B681B68DBB2103B83
:10173800144AA2FB03231B09FB60134AFB681344EA
:101748001B781A467B68DA65FB68032B09D97B6826
:101758001B6823F47F7323F003031A1D7B689A65C3
:1017680007E07B681B6823F47F7323F003037A6820
:1017780093657B689B6D18461437BD465DF8047BFE
:10178800704700BFABAAAAAAD449000880B485B0A4
:1017980000AF78600023FB737B689B6ABB607B6843
:1017A8009B69002B1FD1BB68032B56D801A252F8A6
:1017B80023F000BFCD170008DF170008CD17000879
:1017C800631800087B68DB6A03F08073002B46D03F
:1017D8000123FB7343E07B68DB6AB3F1C07F40D130
:1017E8000123FB733DE07B689B69B3F5005F21D162
:1017F800BB68032B37D801A252F823F0151800084C
:101808001B180008151800082D1800080123FB7381
:1018180030E07B68DB6A03F08073002B25D001235E
:10182800FB7322E07B68DB6AB3F1C07F1FD1012321
:10183800FB731CE0BB68022B03D9BB68032B03D0E6
:1018480018E00123FB7315E07B68DB6A03F0807303
:10185800002B0ED00123FB730BE000BF0AE000BF92
:1018680008E000BF06E000BF04E000BF02E000BFE0
:1018780000E000BFFB7B18461437BD465DF8047BCB
:10188800704700BF80B489B000AF7860396000232A
:101898007B6100233B610023BB610023FB616BE19B
:1018A8000122FB6902FA03F37B613B681B687A69D2
:1018B80013403B613A697B699A4240F05A813B6820
:1018C8005B6803F00303012B05D03B685B6803F0FA
:1018D8000303022B30D17B689B68BB61FB695B000B
:1018E800032202FA03F3DB43BA691340BB613B6886
:1018F800DA68FB695B0002FA03F3BA691343BB6158
:101908007B68BA699A607B685B68BB610122FB6986
:1019180002FA03F3DB43BA691340BB613B685B68B7
:101928001B0903F00102FB6902FA03F3BA691343C6
:10193800BB617B68BA695A603B685B6803F0030364
:10194800032B17D07B68DB68BB61FB695B00032254
:1019580002FA03F3DB43BA691340BB613B689A6838
:10196800FB695B0002FA03F3BA691343BB617B6846
:10197800BA69DA603B685B6803F00303022B23D182
:10198800FB69DA087B68083253F82230BB61FB69CF
:1019980003F007039B000F2202FA03F3DB43BA6943
:1019A8001340BB613B681A69FB6903F007039B009E
:1019B80002FA03F3BA691343BB61FB69DA087B686F
:1019C8000832B96943F822107B681B68BB61FB6960
:1019D8005B00032202FA03F3DB43BA691340BB61DD
:1019E8003B685B6803F00302FB695B0002FA03F3E0
:1019F800BA691343BB617B68BA691A603B685B6864
:101A080003F44033002B00F0B4800023FB60604BEC
:101A18005B6C5F4A43F4804353645D4B5B6C03F437
:101A28008043FB60FB685B4AFB699B08023352F802
:101A38002330BB61FB6903F003039B000F2202FA0A
:101A480003F3DB43BA691340BB617B68524A934294
:101A58002BD07B68514A934225D07B68504A9342E9
:101A68001FD07B684F4A934219D07B684E4A9342F5
:101A780013D07B684D4A93420DD07B684C4A934201
:101A880007D07B684B4A934201D107230EE0082315
:101A98000CE006230AE0052308E0042306E00323FC
:101AA80004E0022302E0012300E00023FA6902F0C7
:101AB800030292009340BA691343BB613549FB693D
:101AC8009B080233BA6941F823203B4B9B68BB61F2
:101AD8003B69DB43BA691340BB613B685B6803F44D
:101AE8008013002B03D0BA693B691343BB61324AA8
:101AF800BB699360304BDB68BB613B69DB43BA6908
:101B08001340BB613B685B6803F40013002B03D0F0
:101B1800BA693B691343BB61274ABB69D360264B4B
:101B28005B68BB613B69DB43BA691340BB613B68D7
:101B38005B6803F40033002B03D0BA693B69134395
:101B4800BB611D4ABB6953601B4B1B68BB613B698A
:101B5800DB43BA691340BB613B685B6803F48033BD
:101B6800002B03D0BA693B691343BB61124ABB69B6
:101B78001360FB690133FB61FB690F2B7FF690AEA5
:101B880000BF00BF2437BD465DF8047B704700BF27
:101B980000380240003801400000024000040240C2
:101BA80000080240000C02400010024000140240ED
:101BB80000180240001C0240003C014080B588B07B
:101BC80000AFF860B9607A607B800023BB610023B6
:101BD8007B610023FB77FB6893F84130DBB2012B74
:101BE80002D00223FB7760E1BB68002B05D07B683D
:101BF800002B02D07B88002B01D101235AE1FB681E
:101C080093F84030DBB2012B01D1022352E1FB688B
:101C1800012283F84020BA68FB685A627A68FB6838
:101C2800DA62FB681B68DB6903F007037B617B6989
:101C3800032B02D07B69052B14D17B885B009AB2F9
:101C4800FB681A857B885B009AB2FB685A857B889B
:101C58005B009AB2FB681A867B885B009AB2FB68C5
:101C68005A860BE0FB687A881A85FB687A885A8559
:101C7800FB687A881A86FB687A885A86FB6800228D
:101C88005A64FB68052283F84120FB68DB6B8B4AAA
:101C98001A64FB68DB6B8A4ADA63FB68DB6B894A88
:101CA800DA64FB689B6B00221A64FB689B6B00225A
:101CB800DA63FB689B6B834ADA64FB681B68DB6941
:101CC80003F440737B617B69B3F5007F02D07B69C5
:101CD800002B6BD13B1DBB61FB68D86BFB681B6895
:101CE800794A934201D1794B01E04FF040230C33FC
:101CF8001946BB691A68FB681B8E9BB2FFF700FB8D
:101D0800FB681B68704A934201D1704B01E04FF0A9
:101D180040235A68FB681B686B498B4201D16B4BA7
:101D280001E04FF0402342F001025A6007F1080336
:101D3800BB61FB68986BBB691968FB681B680C334F
:101D48001A46FB681B8D9BB2FFF7DAFAFB681B6823
:101D58005A68FB681B6842F002025A60FB681B68FD
:101D6800DB6903F48063B3F5806F00F09E80FB6845
:101D78001B68554A934201D1544B01E04FF0402370
:101D8800DA69FB681B6850498B4201D14F4B01E06F
:101D98004FF0402342F48062DA61FB681B68DA691D
:101DA800FB681B6842F48062DA617EE0FB681B68AE
:101DB800DB6903F44073B3F5407F0AD100233B612C
:101DC800FB681B68DB683B61FB681B689B683B61C1
:101DD8003B6907F10803BB61FB68986BBB6919682D
:101DE800FB681B68384A934201D1384B01E04FF039
:101DF80040230C331A46FB681B8D9BB2FFF780FA11
:101E0800FB681B68304A934201D1304B01E04FF028
:101E180040235A68FB681B682B498B4201D12B4B26
:101E280001E04FF0402342F002025A603B1DBB61C3
:101E3800FB68D86BFB681B680C331946BB691A68CA
:101E4800FB681B8E9BB2FFF75BFAFB681B685A683E
:101E5800FB681B6842F001025A60FB681B68DB697B
:101E680003F48063B3F5806F1ED0FB681B68164AC5
:101E7800934201D1154B01E04FF04023DA69FB682A
:101E88001B6811498B4201D1104B01E04FF04023F0
:101E980042F48062DA61FB681B68DA69FB681B68D8
:101EA80042F48062DA6100E000BFFB68002283F838
:101EB8004020FB7F18462037BD4680BD81210008A1
:101EC8009D210008752200080038004000340040B9
:101ED80080B588B000AF78607B681B689B68FB6141
:101EE8007B681B68924A934201D1924B01E04FF004
:101EF80040239B68BB617B681B685B687B617B6870
:101F08001B688B4A934201D18A4B01E04FF0402372
:101F18005B683B617B685B68B3F5007F04D07B68D6
:101F28005B68002B40F09980FB6903F00203022BE9
:101F380007D17B6903F08003002B02D0786800F09A
:101F4800D5F9BB6903F00103012B07D13B6903F005
:101F58004003002B02D0786800F078FABB6903F0E0
:101F68004003402B3AD13B6903F02003002B35D0C6
:101F78007B681B686E4A934201D16E4B01E04FF0BB
:101F880040235A687B681B6869498B4201D1694BB9
:101F980001E04FF0402322F060025A607B681B6822
:101FA8005A687B681B6822F0A0025A600023FB6015
:101FB8007B681B68DB68FB607B681B689B68FB6051
:101FC800FB687B68012283F841207B685B6C43F0E7
:101FD80002027B685A64786800F0D8FBFB6903F05A
:101FE8000803082B40F0C3807B6903F02003002B13
:101FF80000F0BD807B681B685A687B681B6822F00C
:10200800A0025A607B681B68494A934201D1494B38
:1020180001E04FF040235A687B681B6844498B42B3
:1020280001D1444B01E04FF0402322F060025A6096
:102038000023BB607B681B689B68BB60BB687B68D0
:10204800012283F841207B685B6C43F004027B68C3
:102058005A64786800F09AFB89E0BB6903F00203D0
:10206800022B07D13B6903F08003002B02D078686C
:1020780000F06EF9FB6903F00103012B07D17B69BE
:1020880003F04003002B02D0786800F0ADF9FB693B
:1020980003F04003402B2FD17B6903F02003002B72
:1020A8002AD07B681B685A687B681B6822F060022C
:1020B8005A607B681B681E4A934201D11D4B01E0A0
:1020C8004FF040235A687B681B6819498B4201D13D
:1020D800184B01E04FF0402322F0A0025A607B68C1
:1020E800012283F841207B685B6C43F002027B6825
:1020F8005A64786800F04AFBBB6903F00803082BB0
:1021080036D13B6903F02003002B31D07B681B6874
:10211800074A934201D1074B01E04FF040235A6828
:102128007B681B6802498B4206D1024B06E000BF60
:1021380000380040003400404FF0402322F0A00255
:102148005A607B681B685A687B681B6822F06002CB
:102158005A607B68012283F841207B685B6C43F0FE
:1021680004027B685A64786800F010FB00E000BF46
:1021780000BF2037BD4680BD80B584B000AF786011
:102188007B689B6BFB60F868FEF7F6FA00BF1037B8
:10219800BD4680BD80B584B000AF78607B689B6B1E
:1021A800FB607B68DB69002B55D1FB681B68DB692A
:1021B80003F44073B3F5007F06D0FB681B68DB6946
:1021C80003F44073002B1ED1FB681B68254A934219
:1021D80001D1254B01E04FF040235A68FB681B688A
:1021E80020498B4201D1204B01E04FF0402322F0DF
:1021F80001025A60FB681B685A68FB681B6822F07A
:1022080002025A601DE0FB681B685A68FB681B687D
:1022180022F001025A60FB681B68124A934201D1FE
:10222800114B01E04FF040235A68FB681B680D49C9
:102238008B4201D10C4B01E04FF0402322F0020207
:102248005A60FB6800225A86FB6800225A85FB68A0
:10225800012283F84120F868FEF79DFA00BF103785
:10226800BD4680BD003800400034004080B584B0D1
:1022780000AF78607B689B6BFB60FB681B685A68E3
:10228800FB681B6822F003025A60FB681B68154A4A
:10229800934201D1144B01E04FF040235A68FB6888
:1022A8001B6810498B4201D10F4B01E04FF04023CE
:1022B80022F003025A60FB6800225A85FB6800225C
:1022C8005A86FB68012283F84120FB685B6C43F067
:1022D8000802FB685A64F86800F058FA00BF103723
:1022E800BD4680BD003800400034004080B582B053
:1022F80000AF78607B685B6A991C7A6851621A88BB
:102308007B681B68DA607B685B8D9BB2013B9AB285
:102318007B685A857B685B8D9BB2002B13D17B68E9
:102328001B685A687B681B6822F0A0025A607B68A9
:102338005B8E9BB2002B06D17B68012283F841207B
:102348007868FEF728FA00BF0837BD4680BD000050
:1023580080B582B000AF78607B685B6A991C7A6848
:10236800516219887B681B681D4A934201D11D4B35
:1023780001E04FF040230A46DA607B685B8D9BB230
:10238800013B9AB27B685A857B685B8D9BB2002BB8
:1023980021D17B681B68124A934201D1114B01E09D
:1023A8004FF040235A687B681B680D498B4201D166
:1023B8000C4B01E04FF0402322F0A0025A607B68EA
:1023C8005B8E9BB2002B06D17B68012283F84120EB
:1023D8007868FEF7E0F900BF0837BD4680BD00BF4A
:1023E800003800400034004080B582B000AF78600B
:1023F8007B681B68D8687B68DB6A991C7A68D1623D
:1024080082B21A807B685B8E9BB2013B9AB27B6872
:102418005A867B685B8E9BB2002B13D17B681B6846
:102428005A687B681B6822F060025A607B685B8D83
:102438009BB2002B06D17B68012283F84120786883
:10244800FEF7A9F900BF0837BD4680BD80B582B048
:1024580000AF78607B681B68204A934201D1204B0B
:1024680001E04FF04023D8687B68DB6A991C7A68E2
:10247800D16282B21A807B685B8E9BB2013B9AB2B2
:102488007B685A867B685B8E9BB2002B21D17B6868
:102498001B68124A934201D1114B01E04FF04023CF
:1024A8005A687B681B680D498B4201D10C4B01E0CF
:1024B8004FF0402322F060025A607B685B8D9BB22C
:1024C800002B06D17B68012283F841207868FEF74B
:1024D80062F900BF0837BD4680BD00BF0038004024
:1024E8000034004080B588B000AF78607B68002B6E
:1024F80001D1012328E17B6893F84130DBB2002B3E
:1025080009D17B68002283F840207B68904A5A638F
:102518007868FEF7C1FA7B68022283F841207B685D
:102528001B68DB697A68126823F47B6323F00F0366
:10253800D3617B681B6802221A627B685B69022B85
:1025480060D07B68DB68002B02D110237B6101E03F
:1025580020237B617B689B68202B02D87B695B000A
:102568007B61012000F0E6FAF8607B681B69B3F52F
:10257800007F25D17B68DB68002B10D07B699B002E
:10258800FA68B2FBF3F213469B0013445B001A4649
:102598007B685B69B2FBF3F305333B611FE07B6942
:1025A800DB00FA68B2FBF3F213469B0013445B00AE
:1025B8001A467B685B69B2FBF3F305333B610EE0B7
:1025C800FA687B69B2FBF3F213469B0013445B0085
:1025D8001A467B685B69B2FBF3F305333B613B69E1
:1025E8005C4AA2FB0323DB083B613B6903F0010360
:1025F800BB613A69BB69D31A5B08FB61BB691B0203
:10260800BB6103E00223FB610023BB61FB69012B73
:1026180002D9FB69FF2B07D97B685B6C43F010027A
:102628007B685A6401238FE07B681A69BB6942EAB8
:1026380003017B681B68FA690A431A627B681B6896
:10264800DB6923F47B6323F00F037A6851687A68A7
:10265800926811437A68D26811437A6892690A438A
:102668001A437B681B6842F40062DA617B681B6A64
:10267800012B61D17B68384A5A637B681B68374AEB
:10268800934201D1364B01E04FF04023DB697A6871
:10269800126832498A4201D1314A01E04FF04022A2
:1026A80023F47B6323F00F03D3617B681B682B4AF9
:1026B800934201D12A4B01E04FF0402302221A62D3
:1026C8007B681B68254A934201D1254B01E04FF0F6
:1026D8004023DB697B817B685B68B3F5007F03D0AF
:1026E8007B685B68002B03D14FF480733B6101E08A
:1026F80000233B613B699AB27B689B689BB213439A
:102708009AB27B68DB689BB213439AB27B689B6979
:102718009BB213439AB27B8913439BB243F4006381
:102728007B817B681B680D4A934201D10C4B01E009
:102738004FF040237A89DA617B6800225A647B680B
:10274800012283F84120002318462037BD4680BD6A
:1027580063280008CDCCCCCCD91E00080038004036
:102768000034004080B483B000AF786000BF0C37FD
:10277800BD465DF8047B704780B483B000AF7860D5
:1027880000BF0C37BD465DF8047B704780B483B04A
:1027980000AF786000BF0C37BD465DF8047B70471A
:1027A80080B582B000AF78607B685B6A1A887B6806
:1027B8001B68DA607B685B6A9A1C7B685A627B6874
:1027C8005B8D9BB2013B9AB27B685A857B685B8DB7
:1027D8009BB2002B0ED17B681B685A687B681B680C
:1027E80022F0A0025A607B68012283F841207868B1
:1027F800FFF7B8FF00BF0837BD4680BD80B582B07F
:1028080000AF78607B681B68DA687B68DB6A92B225
:102818001A807B68DB6A9A1C7B68DA627B685B8E4D
:102828009BB2013B9AB27B685A867B685B8E9BB2EF
:10283800002B0ED17B681B685A687B681B6822F0E6
:1028480060025A607B68012283F841207868FFF7AC
:1028580093FF00BF0837BD4680BD80B586B000AF86
:1028680078607B681B689B687B617B6893F8413064
:10287800DBB2042B3AD17B6903F00103012B09D1A8
:102888007B681B685B6803F04003402B02D17868C3
:10289800FFF7B4FF7B6903F04003402B26D17B6828
:1028A8001B685B6803F02003202B1FD17B681B6823
:1028B8005A687B681B6822F060025A6000233B61FB
:1028C8007B681B68DB683B617B681B689B683B61B6
:1028D8003B697B68012283F841207B685B6C43F08D
:1028E80002027B685A647868FFF750FF7B6893F8A8
:1028F8004130DBB2032B36D17B6903F00203022B94
:1029080009D17B681B685B6803F08003802B02D1C8
:102918007868FFF745FF7B6903F00803082B22D18D
:102928007B681B685B6803F02003202B1BD17B6846
:102938001B685A687B681B6822F0A0025A60002353
:10294800FB607B681B689B68FB60FB687B680122F7
:1029580083F841207B685B6C43F004027B685A640F
:102968007868FFF713FF00BF1837BD4680BD000029
:1029780080B586B000AF786000237B6100233B619F
:102988007B681B6803F00103002B05D17B681B687B
:1029980003F00403002B35D0624B00221A6001F0CB
:1029A800B3FA786108E001F0AFFA02467B69D31AFE
:1029B800022B01D90323B0E05B4B1B6803F00063D3
:1029C800002BF0D17B685B689A017B689B681B07CA
:1029D80055491343C1F88430524B01221A6001F063
:1029E80093FA786108E001F08FFA02467B69D31AFE
:1029F800022B01D9032390E04B4B1B6803F00063C3
:102A0800002BF0D07B681B6803F00203002B00F05A
:102A180083800023FB60444B1B6C434A43F0805384
:102A28001364414B1B6C03F08053FB60FB683F4B06
:102A38001B683E4A43F48073136001F065FA7861BD
:102A480008E001F061FA02467B69D31A022B01D92A
:102A5800032362E0354B1B6803F48073002BF0D02E
:102A6800314B1B6F03F440733B613B69002B2FD044
:102A78007B68DB6803F440733A699A4228D02A4B92
:102A88001B6F23F440733B61294B01221A60284BCA
:102A980000221A60244A3B691367234B1B6F03F01B
:102AA8000103012B14D101F02FFA78610AE001F03B
:102AB8002BFA02467B69D31A41F28832934201D934
:102AC80003232AE0184B1B6F03F00203002BEED000
:102AD8007B68DB6803F44073B3F5407F0DD1124B7C
:102AE8009B6823F4F8127B68DB6823F0704323F4B7
:102AF80040730D4913438B6005E00B4B9B680A4AF2
:102B080023F4F8139360084B1A6F7B68DB68C3F3F0
:102B18000B03054913430B67002318461837BD46B6
:102B280080BD00BF68004742003802400070004086
:102B3800400E474280B487B000AF786000237B61C5
:102B480000233B610023FB600023BB607B68012BF3
:102B58003ED1234B9B6803F40003FB60FB68002B0A
:102B680005D0FB68012B2FD11E4B7B612FE01C4B3E
:102B78005B6803F48003B3F5800F08D1184B5B68DA
:102B880003F03F03184AB2FBF3F33B6107E0144B31
:102B98005B6803F03F03154AB2FBF3F33B61104B4C
:102BA800D3F884309B09C3F308023B6902FB03F3A3
:102BB800BB600B4BD3F884301B0F03F00703BA68D4
:102BC800B2FBF3F37B6102E000237B6100BF00BF2F
:102BD8007B6918461C37BD465DF8047B704700BF0B
:102BE800003802400080BB0000127A000024F40084
:102BF80080B586B000AF78607B68002B01D10123D7
:102C080067E27B681B6803F00103002B75D0884BD3
:102C18009B6803F00C03042B0CD0854B9B6803F0D6
:102C28000C03082B12D1824B5B6803F48003B3F5C5
:102C3800800F0BD17E4B1B6803F40033002B5BD055
:102C48007B685B68002B57D1012342E27B685B6895
:102C5800B3F5803F06D1764B1B68754A43F4803341
:102C680013601DE07B685B68B3F5A02F0CD1704B37
:102C78001B686F4A43F4802313606D4B1B686C4AD2
:102C880043F4803313600BE0694B1B68684A23F4F4
:102C980080331360664B1B68654A23F480231360F6
:102CA8007B685B68002B13D001F02EF9386108E0CF
:102CB80001F02AF902463B69D31A642B01D9032390
:102CC80007E25B4B1B6803F40033002BF0D014E0E1
:102CD80001F01AF9386108E001F016F902463B697B
:102CE800D31A642B01D90323F3E1514B1B6803F476
:102CF8000033002BF0D100E000BF7B681B6803F0B5
:102D08000203002B63D04A4B9B6803F00C03002B93
:102D18000BD0474B9B6803F00C03082B1CD1444B8A
:102D28005B6803F48003002B16D1414B1B6803F04A
:102D38000203002B05D07B68DB68012B01D001233F
:102D4800C7E13B4B1B6823F0F8027B681B69DB007B
:102D5800374913430B603AE07B68DB68002B20D0CF
:102D6800344B01221A6001F0CFF8386108E001F015
:102D7800CBF802463B69D31A022B01D90323A8E1F9
:102D88002B4B1B6803F00203002BF0D0284B1B6869
:102D980023F0F8027B681B69DB00254913430B60AD
:102DA80015E0244B00221A6001F0AEF8386108E003
:102DB80001F0AAF802463B69D31A022B01D9032372
:102DC80087E11B4B1B6803F00203002BF0D17B68E3
:102DD8001B6803F00803002B36D07B685B69002B67
:102DE80016D0154B01221A6001F08EF8386108E000
:102DF80001F08AF802463B69D31A022B01D9032352
:102E080067E10B4B5B6F03F00203002BF0D01BE074
:102E1800094B00221A6001F077F838610EE001F0E2
:102E280073F802463B69D31A022B07D9032350E1F2
:102E38000038024000004742800E4742884B5B6FD3
:102E480003F00203002BEAD17B681B6803F004033C
:102E5800002B00F097800023FB75814B1B6C03F05F
:102E68008053002B0FD10023BB607D4B1B6C7C4A29
:102E780043F0805313647A4B1B6C03F08053BB60A0
:102E8800BB680123FB75774B1B6803F48073002B29
:102E980018D1744B1B68734A43F48073136001F0B4
:102EA80033F8386108E001F02FF802463B69D31A7D
:102EB800022B01D903230CE16A4B1B6803F48073CE
:102EC800002BF0D07B689B68012B06D1644B1B6FED
:102ED800634A43F0010313671CE07B689B68052B7A
:102EE8000CD15F4B1B6F5E4A43F0040313675C4BC6
:102EF8001B6F5B4A43F0010313670BE0584B1B6FD2
:102F0800574A23F001031367554B1B6F544A23F0AC
:102F1800040313677B689B68002B15D000F0F4FF4F
:102F280038610AE000F0F0FF02463B69D31A41F22B
:102F38008832934201D90323CBE0494B1B6F03F03E
:102F48000203002BEED014E000F0DEFF38610AE047
:102F580000F0DAFF02463B69D31A41F28832934205
:102F680001D90323B5E03E4B1B6F03F00203002B8E
:102F7800EED1FB7D012B05D1394B1B6C384A23F070
:102F8800805313647B689B69002B00F0A180344B4D
:102F98009B6803F00C03082B5CD07B689B69022BB1
:102FA80041D1314B00221A6000F0AEFF386108E0D1
:102FB80000F0AAFF02463B69D31A022B01D903236A
:102FC80087E0274B1B6803F00073002BF0D17B6868
:102FD800DA697B681B6A1A437B685B6A9B011A4340
:102FE8007B689B6A5B08013B1B041A437B68DB6AAE
:102FF8001B061B4913434B601B4B01221A6000F050
:1030080083FF386108E000F07FFF02463B69D31A6E
:10301800022B01D903235CE0114B1B6803F00073FA
:10302800002BF0D054E0104B00221A6000F06CFF27
:10303800386108E000F068FF02463B69D31A022BAA
:1030480001D9032345E0064B1B6803F00073002BEE
:10305800F0D13DE07B689B69012B07D1012338E063
:103068000038024000700040600047421B4B5B681C
:10307800FB607B689B69012B28D0FB6803F4800206
:103088007B68DB699A4221D1FB6803F03F027B68C9
:103098001B6A9A421AD1FA6847F6C07313407A68D5
:1030A800526A9201934211D1FB6803F440327B6863
:1030B8009B6A5B08013B1B049A4207D1FB6803F03B
:1030C80070627B68DB6A1B069A4201D0012300E02C
:1030D800002318461837BD4680BD00BF003802409F
:1030E80080B584B000AF786039607B68002B01D16F
:1030F8000123CCE0684B1B6803F007033A689A4247
:103108000CD9654B3A68D2B21A70634B1B6803F04E
:1031180007033A689A4201D00123B8E07B681B682C
:1031280003F00203002B20D07B681B6803F0040324
:10313800002B05D0594B9B68584A43F4E0539360E1
:103148007B681B6803F00803002B05D0534B9B6872
:10315800524A43F460439360504B9B6823F0F0025B
:103168007B689B684D4913438B607B681B6803F041
:103178000103002B44D07B685B68012B07D1474BC8
:103188001B6803F40033002B19D101237FE07B680F
:103198005B68022B03D07B685B68032B07D13F4B2E
:1031A8001B6803F00073002B09D101236FE03B4B30
:1031B8001B6803F00203002B01D1012367E0374BA2
:1031C8009B6823F003027B685B68344913438B6078
:1031D80000F09AFEF8600AE000F096FE0246FB68EE
:1031E800D31A41F28832934201D903234FE02B4B83
:1031F8009B6803F00C027B685B689B009A42EBD1EA
:10320800254B1B6803F007033A689A420CD2224BFD
:103218003A68D2B21A70204B1B6803F007033A6869
:103228009A4201D0012332E07B681B6803F0040353
:10323800002B08D0194B9B6823F4E0527B68DB68AD
:10324800164913438B607B681B6803F00803002B47
:1032580009D0124B9B6823F460427B681B69DB0032
:103268000E4913438B6000F021F802460B4B9B6814
:103278001B0903F00F030A49CB5C22FA03F3094A3E
:103288001360094B1B68184600F0FAFD0023184626
:103298001037BD4680BD00BF003C024000380240E8
:1032A800BC4900081C000020200000202DE9B04F78
:1032B80094B000AF00237B640023FB6400233B64CD
:1032C8000023BB64794B9B6803F00C03082B0DD0DB
:1032D800082B00F2E180002B02D0042B03D0DBE0A6
:1032E800734BBB64DBE0734BBB64D8E06F4B5B682C
:1032F80003F03F037B646D4B5B6803F48003002B92
:1033080063D06A4B5B689B090022BB63FA63BB6BA3
:10331800C3F308033B6300237B63D7E90C452246CC
:103328002B464FF000004FF00001590141EAD261ED
:10333800500102460B462146511A3961294663EB72
:1033480001037B614FF000024FF00003D7E904ABA3
:1033580059468B01514643EA916351468A015146C9
:10336800B2EB0108594663EB01094FF000024FF038
:1033780000034FEAC90343EA58734FEAC80290466C
:103388009946234618EB0303BB602B4649EB03031E
:10339800FB604FF000024FF00003D7E902452946D1
:1033A8004B02214643EAD15321464A0210461946A8
:1033B8007B6C0022BB62FA62D7E90A23FCF700FFA4
:1033C80002460B461346FB6458E0384B5B689B0982
:1033D800002218461146C0F308033B6200237B62B3
:1033E800D7E9088942464B464FF000004FF00001EC
:1033F800590141EAD261500102460B464146B2EBFF
:10340800010A494663EB010B4FF000024FF000033D
:103418004FEA8B1343EA9A634FEA8A12B2EB0A0423
:1034280063EB0B054FF000024FF00003EB0043EA9B
:103438005473E20014461D464346E3183B604B466E
:1034480045EB03037B604FF000024FF00003D7E920
:10345800004529468B02214643EA915321468A02B8
:10346800104619467B6C0022BB61FA61D7E9062336
:10347800FCF7A6FE02460B461346FB640B4B5B6843
:103488001B0C03F0030301335B003B64FA6C3B6CD9
:10349800B2FBF3F3BB6402E0054BBB6400BFBB6C3B
:1034A80018465037BD46BDE8B08F00BF003802400F
:1034B8000024F40000127A0080B400AF034B1B68AC
:1034C8001846BD465DF8047B704700BF1C0000200D
:1034D80080B500AFFFF7F0FF0246054B9B689B0ADB
:1034E80003F007030349CB5C22FA03F3184680BDB7
:1034F80000380240CC49000880B500AFFFF7DCFF78
:103508000246054B9B685B0B03F007030349CB5C42
:1035180022FA03F3184680BD00380240CC4900085F
:1035280080B582B000AF78607B68002B01D10123A1
:103538003FE07B6893F83D30DBB2002B06D17B6817
:10354800002283F83C207868FDF7A2FB7B682422E0
:1035580083F83D207B681B68DA687B681B6822F467
:103568000052DA60786800F0F5F97B681B681A6920
:103578007B681B6822F490421A617B681B685A6951
:103588007B681B6822F02A025A617B681B68DA682C
:103598007B681B6842F40052DA607B6800221A6478
:1035A8007B68202283F83D207B68202283F83E2018
:1035B800002318460837BD4680BD000080B58CB092
:1035C80000AFF860B9601346FB80FB6893F83D30A4
:1035D800DBB2202B65D1BB68002B02D0FB88002B07
:1035E80001D101235EE0FB6893F83C30012B01D147
:1035F800022357E0FB68012283F83C20BA68FB6885
:103608001A62FB68FA889A84FB68FA88DA84FB688D
:1036180000221A64FB68212283F83D20FB685B6B5B
:10362800224ADA63FB685B6B214A1A64FB685B6BAE
:10363800204ADA64FB685B6B00221A6507F108030D
:10364800FB62FB68586BFB6A1968FB681B680433EC
:103658001A46FB88FDF754FEFB681B686FF04002B2
:103668001A60FB68002283F83C20FB681B6814334F
:10367800BB61BB6953E8003F7B617B6943F0800312
:10368800BB62FB681B681433BA6A7A623B62396AA8
:103698007A6A41E80023FB61FB69002BE5D100232E
:1036A80000E0022318463037BD4680BDFD360008CD
:1036B80097370008B337000880B483B000AF78604C
:1036C80000BF0C37BD465DF8047B704780B483B0FB
:1036D80000AF786000BF0C37BD465DF8047B7047CB
:1036E80080B483B000AF786000BF0C37BD465DF88A
:1036F800047B704780B590B000AF78607B689B6BA7
:10370800FB637B681B681B6803F48073002B37D14D
:10371800FB6B0022DA84FB6B1B6814337B627B6AC9
:1037280053E8003F3B623B6A23F08003BB63FB6BBB
:103738001B681433BA6B3A63FB62F96A3A6B41E867
:103748000023BB62BB6A002BE5D1FB6B1B680C3303
:103758003B613B6953E8003FFB60FB6843F0400373
:103768007B63FB6B1B680C337A6BFA61BB61B969CD
:10377800FA6941E800237B617B69002BE5D102E00F
:10378800F86BFFF799FF00BF4037BD4680BD80B595
:1037980084B000AF78607B689B6BFB60F868FFF7CC
:1037A80095FF00BF1037BD4680BD80B584B000AF1F
:1037B80078600023FB607B689B6BBB60BB681B6801
:1037C8005B6903F08003802B0CBF01230023DBB26D
:1037D800FB60BB6893F83D30DBB2212B08D1FB6856
:1037E800002B05D0BB680022DA84B86800F027F8FF
:1037F800BB681B685B6903F04003402B0CBF0123C7
:103808000023DBB2FB60BB6893F83E30DBB2222BAF
:1038180008D1FB68002B05D0BB680022DA85B868A0
:1038280000F035F8BB681B6C43F01002BB681A64E3
:10383800B868FFF755FF00BF1037BD4680BD80B49C
:1038480089B000AF78607B681B680C33FB60FB684D
:1038580053E8003FBB60BB6823F0C003FB617B6893
:103868001B680C33FA69BA617B617969BA6941E806
:1038780000233B613B69002BE5D17B68202283F85C
:103888003D2000BF2437BD465DF8047B704780B4F7
:1038980095B000AF78607B681B680C337B637B6BEB
:1038A80053E8003F3B633B6B23F49073FB647B68F6
:1038B8001B680C33FA6C3A64FB63F96B3A6C41E8A9
:1038C8000023BB63BB6B002BE5D17B681B681433FB
:1038D8003B623B6A53E8003FFB61FB6923F001034D
:1038E800BB647B681B681433BA6CFA62BB62B96A42
:1038F800FA6A41E800237B627B6A002BE5D17B688A
:103908001B6B012B19D17B681B680C33FB60FB68B0
:1039180053E8003FBB60BB6823F010037B647B68FF
:103928001B680C337A6CBA617B617969BA6941E8C2
:1039380000233B613B69002BE5D17B68202283F89B
:103948003E207B6800221A6300BF5437BD465DF8ED
:10395800047B70472DE9B04FC0B000AFC7F8F40042
:10396800D7F8F4301B681B6923F44050D7F8F430BB
:10397800D968D7F8F4301A6840EA01031361D7F818
:10398800F4309A68D7F8F4301B691A43D7F8F43042
:103998005B691A43D7F8F430DB691343C7F8F8308A
:1039A800D7F8F4301B68DB6823F4164121F00C01CA
:1039B800D7F8F4301A68D7F8F8300B43D360D7F843
:1039C800F4301B685B6923F44070D7F8F4309969C8
:1039D800D7F8F4301A6840EA01035361D7F8F43095
:1039E8001A688F4B9A4205D0D7F8F4301A688D4B75
:1039F8009A4204D1FFF780FDC7F8FC0003E0FFF707
:103A080067FDC7F8FC00D7F8F430DB69B3F5004F61
:103A180040F00C81D7F8FC300022C7F8E830C7F82E
:103A2800EC20D7E93A4522462B469118B9655B4107
:103A3800FB65D7E91623214612EB0108294643EB1B
:103A480001094FF000024FF000034FEAC90343EAAF
:103A580058734FEAC80290469946234618EB030369
:103A6800C7F8E0302B4649EB0303C7F8E430D7F832
:103A7800F4305B680022C7F8D830C7F8DC20D7E9F3
:103A880036120B46DB183B65134642EB03037B6596
:103A9800D7E91423D7E93801FCF792FB02460B4615
:103AA800614BA3FB02235B091C01D7F8FC30002201
:103AB800C7F8D030C7F8D420D7E9348942464B46F6
:103AC8009118B9645B41FB64D7E91223414612EBB4
:103AD800010A494643EB010B4FF000024FF0000387
:103AE8004FEACB0343EA5A734FEACA0292469B460F
:103AF80043461AEB0303C7F8C8304B464BEB0303A6
:103B0800C7F8CC30D7F8F4305B680022C7F8C0306B
:103B1800C7F8C420D7E930120B46DB183B641346BC
:103B280042EB03037B64D7E91023D7E93201FCF7A2
:103B380047FB02460B4611463B4BA3FB01235B099F
:103B4800642202FB03F3CB1ADB0003F13202364B8B
:103B5800A3FB02235B095B0003F4F8731C44D7F84A
:103B6800FC300022C7F8B830C7F8BC20D7E92E8946
:103B780042464B469118B9635B41FB63D7E90E2374
:103B880041465118396349464B417B634FF0000267
:103B98004FF00003D7E90CAB5946CB00514643EA36
:103BA80051735146CA0010461946034642469B18AF
:103BB800C7F8B0304B460A4642EB0303C7F8B430A7
:103BC800D7F8F4305B680022C7F8A830C7F8AC20F3
:103BD800D7E92A120B46DB18BB62134642EB0303F4
:103BE800FB62D7E90A23D7E92C01FCF7E9FA024678
:103BF8000B460D4BA3FB02135B09642101FB03F386
:103C0800D31ADB003233084AA2FB03235B0903F013
:103C18000702D7F8F4301B6822449A6005E100BF18
:103C280000100140001401401F85EB51D7F8FC300B
:103C38000022C7F8A030C7F8A420D7E9288942464F
:103C48004B46911839625B417B62D7E908234146AC
:103C58005418494643EB01054FF000024FF00003AA
:103C6800EB0043EA5473E20014461D464346E3184A
:103C7800C7F898304B4645EB0303C7F89C30D7F894
:103C8800F4305B680022C7F89030C7F894204FF0F2
:103C980000024FF00003D7E9244529468B0021464E
:103CA80043EA917321468A00D7E92601FCF788FA8E
:103CB80002460B46604BA3FB02235B091C01D7F8A5
:103CC800FC300022C7F88830C7F88C20D7E9228951
:103CD80042464B469118B9615B41FB61D7E906231F
:103CE80041465118396149464B417B614FF000020A
:103CF8004FF00003D7E904AB5946CB00514643EADD
:103D080051735146CA0010461946034642469B184D
:103D1800C7F880304B460A4642EB0303C7F88430A5
:103D2800D7F8F4305B680022BB67FA674FF00002EF
:103D38004FF00003D7E91E8949468B00414643EA04
:103D4800917341468A00D7E92001FCF739FA024607
:103D58000B46394BA3FB02135B09642101FB03F3F8
:103D6800D31A1B013233344AA2FB03235B0903F045
:103D7800F0031C44D7F8FC3000223B677A67D7E988
:103D88001C8942464B469118B9605B41FB60D7E9F4
:103D9800022341465118396049464B417B604FF038
:103DA80000024FF00003D7E900AB5946CB0051465B
:103DB80043EA51735146CA00104619460346424623
:103DC8009B18BB664B460A4642EB0303FB66D7F8D3
:103DD800F4305B6800223B667A664FF000024FF0D1
:103DE8000003D7E9188949468B00414643EA917395
:103DF80041468A00D7E91A01FCF7E2F902460B4668
:103E08000D4BA3FB02135B09642101FB03F3D31AD7
:103E18001B013233084AA2FB03235B0903F00F029C
:103E2800D7F8F4301B6822449A6000BF07F5807702
:103E3800BD46BDE8B08F00BF1F85EB5180B500AF10
:103E48000E4B1B680D4A43F4007313600B4B1B6841
:103E58000A4A43F480631360084B1B68074A43F41B
:103E6800807313600320FDF75BF90F2000F008F85A
:103E7800FCF7EAFD0023184680BD00BF003C024065
:103E880080B582B000AF7860124B1A68124B1B786D
:103E980019464FF47A73B3FBF1F3B2FBF3F3184608
:103EA800FDF773F90346002B01D001230EE07B6870
:103EB8000F2B0AD8002279684FF0FF30FDF73BF945
:103EC800064A7B681360002300E001231846083780
:103ED800BD4680BD1C0000202400002020000020DA
:103EE80080B400AF064B1B781A46064B1B68134478
:103EF800044A136000BFBD465DF8047B704700BFED
:103F0800240000205C02002080B400AF034B1B6833
:103F18001846BD465DF8047B704700BF5C02002070
:103F2800014B1868704700BF2800002070B50D4D80
:103F38000D4C641BA4100026A64209D10B4D0C4C55
:103F480000F01EFD641BA4100026A64205D170BD1A
:103F580055F8043B98470136EEE755F8043B984777
:103F68000136F2E7484A0008484A0008484A00086B
:103F78004C4A000802440346934200D1704703F8B4
:103F8800011BF9E770B50E46054618B183690BB9F0
:103F980000F048FAAB69AC6813B9284600F042FA59
:103FA8002C4B9C4220D16C68636EDB0705D4A38937
:103FB800980502D4A06D00F0D3FAA38919071DD57E
:103FC8002369DBB1013EA36816F8011F013BA3601A
:103FD80039BB002B38DA22460A21284600F048F877
:103FE800013011D00A2511E01B4B9C4201D1AC686D
:103FF800DAE71A4B9C4208BFEC68D5E72146284609
:1040080000F088F80028DDD04FF0FF35636EDA073E
:1040180005D4A3899B0502D4A06D00F0A2FA284616
:1040280070BD002B04DAA2699A4206DC0A2904D082
:1040380023685A1C22601970C5E72246284600F0FA
:1040480017F80130BFD1DFE723680A255A1C226020
:104058001D70DBE7004A0008204A0008E049000814
:10406800024B01461868FFF78DBF00BF28000020EB
:10407800F8B50E461446054618B183690BB900F029
:10408800D1F9214B9C422BD16C68A369A360A38909
:104098001A072FD523696BB323692068C01A63698F
:1040A800F6B28342374604DC2146284600F026F95A
:1040B80030BBA368013BA36023685A1C22601E70B2
:1040C80063690130834204D0A389DB0706D50A2E31
:1040D80004D12146284600F011F988B93846F8BDC0
:1040E8000A4B9C4201D1AC68CFE7094B9C4208BF00
:1040F800EC68CAE72146284600F00CF80028CBD027
:104108004FF0FF37EAE700BF004A0008204A0008DE
:10411800E0490008324B70B51D6806460C4625B1CB
:10412800AB6913B9284600F07DF92E4B9C420FD19C
:104138006C68A389B4F90C2019072CD4DD0611D4B6
:104148000923336042F04003A3814FF0FF303EE083
:10415800254B9C4201D1AC68EBE7244B9C4208BF3D
:10416800EC68E6E7580712D5616B41B104F14403E6
:10417800994202D0304600F05BFA00236363A389BA
:1041880023F02403A3810023636023692360A389A8
:1041980043F00803A38123694BB9A38903F420736F
:1041A800B3F5007F03D02146304600F001FAA0891C
:1041B800B4F90C2010F001030AD00023A36063694E
:1041C8005B42A361236943B910F08000BAD170BD86
:1041D800810758BF6369A360F4E70020F7E700BFD1
:1041E80028000020004A0008204A0008E04900088A
:1041F8008A892DE9F041054610070C4658D44B68CA
:10420800002B05DC0B6C002B02DC0020BDE8F081E4
:10421800E66A002EF9D0002312F480522F682B6032
:1042280032D0606DA3895A0705D56368C01A636BDD
:104238000BB1236CC01A00230246E66A216A28469D
:10424800B047431CA38906D129681D292CD82A4ABE
:10425800CA40D60728D500226260D90422692260A4
:1042680004D5421C01D12B6803B96065616B2F60CE
:104278000029CAD004F14403994202D0284600F02C
:10428800D7F900206063C1E7216A01232846B047B7
:10429800411CC7D12B68002BC4D01D2B01D0162B75
:1042A80001D12F60B1E7A38943F04003A381ADE7B3
:1042B8000F69002FA9D093070E6808BF4B690F60DC
:1042C80018BF0023A6EB07088B60B8F1000F9CDD30
:1042D800216AA66A43463A462846B047002806DCC3
:1042E800A38943F04003A3814FF0FF308EE70744D2
:1042F800A8EB0008E9E700BF0100402038B50B69CA
:1043080005460C4613B90025284638BD18B18369FF
:104318000BB900F087F8144B9C421BD16C68B4F9B8
:104328000C30002BEFD0626ED00704D4990502D46C
:10433800A06D00F015F928462146FFF759FF636E76
:10434800DA070546E0D4A3899B05DDD4A06D00F00B
:1043580008F9D9E7054B9C4201D1AC68DFE7044B6B
:104368009C4208BFEC68DAE7004A0008204A0008C7
:10437800E0490008002310B50446C0E90033C0E94D
:104388000433836081814366C281836119460822B0
:104398005C30FFF7EFFD054B6362054BA362054BED
:1043A800E362054B2462236310BD00BF194800086F
:1043B8003B4800087348000897480008014900F086
:1043C800AFB800BF0543000870B568224D1E5543BD
:1043D8000E4605F1740100F097F9044640B100213A
:1043E800C0E900160C30A06005F16802FFF7C2FDB5
:1043F800204670BD014800F0B3B800BF610200203C
:10440800014800F0AEB800BF61020020014800F08A
:10441800A7B800BF62020020014800F0A2B800BFA0
:104428006202002010B50446FFF7F0FFA3691BB134
:10443800BDE81040FFF7F0BFC4E912332365134B02
:10444800134A1B68A262A34204BF0123A36120464A
:1044580000F020F86060204600F01CF8A0602046BC
:1044680000F018F80022E06004216068FFF782FF7E
:10447800A06801220921FFF77DFFE06802221221CE
:10448800FFF778FF0123A361D2E700BFDC490008EA
:10449800C5430008F8B50746FFF7ACFF1E4B1E687A
:1044A800B36913B93046FFF7BDFF4836D6E9013482
:1044B800013B03D533680BB33668F7E7B4F90C5002
:1044C800D5B9164BE36004F15800656600F047F86B
:1044D800FFF796FFC4E90155C4E904552560A561B5
:1044E8000822294604F15C00FFF744FDC4E90D5594
:1044F800C4E912552046F8BD6834D9E70421384686
:10450800FFF762FF044630600028D5D1FFF778FF37
:104518000C233B60EEE700BFDC4900080100FFFF09
:104528002DE9F8430646884600F148040027D4E9F7
:104538000195B9F1010905D52468002CF7D1384651
:10454800BDE8F883AB89012B07D9B5F90E300133E3
:1045580003D029463046C04707436835E9E7704726
:104568007047704770B50E46B1F90E10002996B025
:1045780014461D4608DAB6F90C3000222A601A06DD
:1045880010D44FF480630EE06A4600F0A7F90028C3
:10459800F1DB019A02F47042A2F500535A425A41E3
:1045A8002A60EEE740230020236016B070BD0000AB
:1045B8008B8973B59D0706460C4607D504F147035A
:1045C800236023610123636102B070BD01AB6A46B9
:1045D800FFF7C8FF00990546304600F095F848B93E
:1045E800B4F90C309A05EFD423F0030343F0020327
:1045F800A381E3E70D4BB362A389206043F08003F6
:10460800A381009B6361019B20615BB1B4F90E102B
:10461800304600F075F928B1A38923F0030343F06D
:104628000103A381A0890543A581CDE7C5430008FF
:1046380037B5002944D051F8043C0190002BA1F172
:104648000404B8BFE41800F07DF91E4A0198136805
:1046580033B96360146003B0BDE8304000F078B946
:10466800A34208D9256861198B4201BF19685B68A4
:1046780049192160EDE71A465B680BB1A342FAD9E4
:1046880011685518A5420BD1246821445418A34237
:104698001160E0D11C685B68536021441160DAE75F
:1046A80002D90C230360D6E7256861198B4204BF41
:1046B80019685B68636004BF491921605460CAE7E0
:1046C80003B030BD6402002070B50E4E0C46316850
:1046D800054611B900F08CF830602146284600F0F4
:1046E80087F8431C0AD0C41C24F00304A04207D056
:1046F800211A284600F07CF8013001D14FF0FF3430
:10470800204670BD680200202DE9F041CD1C25F03F
:10471800030508350C2D38BF0C25002D074601DB95
:10472800A94205D90C233B6000263046BDE8F0813C
:104738002E4E00F007F933681C4634BB294638462C
:10474800FFF7C2FF431C04464DD134682646002EAD
:1047580040D123683146384604EB030800F048F896
:1047680080453AD1216803356D1A25F003050835CF
:104778000C2D38BF0C2529463846FFF7A5FF013018
:104788002BD023682B4423600EE02268521B1ED4D2
:104798000B2A16D96119A342256018BF59606368AE
:1047A80008BF316062514B60384604F10B0600F0D7
:1047B800CFF826F00706231DF21AB6D09B1BA3508C
:1047C800B3E76268A3420CBF32605A60ECE7234645
:1047D8006468B2E734467668B9E70C233B6038462C
:1047E80000F0B6F8A1E72560DEE700BF640200200C
:1047F80038B5064D0023044608462B60FCF720FB1D
:10480800431C02D12B6803B1236038BD6C02002021
:1048180010B50C46B1F90E1000F0A0F80028ABBF97
:10482800636DA3891B1823F48053ACBF6365A38110
:1048380010BD2DE9F0411F468B89DB0505460C4666
:10484800164605D5B1F90E100223002200F068F8CB
:10485800A389B4F90E1023F48053A38132463B4652
:104868002846BDE8F04100F017B810B50C46B1F97C
:104878000E1000F055F8431CA38915BF606523F49A
:10488800805343F48053A38118BFA38110BDB1F9AD
:104898000E1000F013B8000038B5074D044608465E
:1048A800114600222A601A46FBF70CFE431C02D16F
:1048B8002B6803B1236038BD6C02002038B5064D63
:1048C8000023044608462B60FCF785FA431C02D1F6
:1048D8002B6803B1236038BD6C02002038B5074D42
:1048E80000230446084611462B60FCF780FA431C57
:1048F80002D12B6803B1236038BD00BF6C020020D1
:1049080038B5064D0023044608462B60FCF77FFAAD
:10491800431C02D12B6803B1236038BD6C02002010
:1049280038B5074D04460846114600222A601A4643
:10493800FCF778FA431C02D12B6803B1236038BD19
:104948006C0200200148FFF70BBE00BF6002002088
:104958000148FFF706BE00BF6002002038B5074DCA
:1049680004460846114600222A601A46FCF716FA41
:10497800431C02D12B6803B1236038BD6C020020B0
:10498800F8B500BFF8BC08BC9E467047F8B500BF34
:08499800F8BC08BC9E46704704
:1049A0007472616E736D6974207265636569766592
:1049B0002073746172746564210D000000000000B2
:1049C00000000000010203040607080900000000BF
:1049D0000102030400061016000610162C00002029
:1049E00000000000000000000000000000000000C7
:1049F00000000000000000000000000000000000B7
:104A000000000000000000000000000000000000A6
:104A10000000000000000000000000000000000096
:104A20000000000000000000000000000000000086
:104A30000000000000000000000000000000000076
:084A4000B8B7FF7F0100000080
:044A4800AD010008B4
:044A4C0089010008D4
:104A50000BB5163F4A0CE23F4A0CE23F0BB5163F3E
:104A60009643FB3F3333B33F575BB13E0024F40022
:104A700010000000010000002C00002000000000D9
:104A8000004A0008204A0008E04900080000000031
:104A90000000000000000000000000000000000016
:104AA0000000000000000000000000000000000006
:104AB00000000000000000000000000000000000F6
:104AC00000000000000000000000000000000000E6
:0C4AD000000000000000000000000000DA
:0400000508000ED908
:00000001FF
